{
  "contractName": "HumanChain",
  "abi": [
    {
      "constant": true,
      "inputs": [],
      "name": "owner",
      "outputs": [
        {
          "name": "",
          "type": "address"
        }
      ],
      "payable": false,
      "stateMutability": "view",
      "type": "function"
    },
    {
      "inputs": [],
      "payable": false,
      "stateMutability": "nonpayable",
      "type": "constructor"
    },
    {
      "anonymous": false,
      "inputs": [
        {
          "indexed": true,
          "name": "id",
          "type": "uint256"
        },
        {
          "indexed": true,
          "name": "creator",
          "type": "address"
        },
        {
          "indexed": true,
          "name": "req",
          "type": "uint256"
        }
      ],
      "name": "NewCause",
      "type": "event"
    },
    {
      "anonymous": false,
      "inputs": [
        {
          "indexed": true,
          "name": "id",
          "type": "uint256"
        },
        {
          "indexed": true,
          "name": "donor",
          "type": "address"
        },
        {
          "indexed": true,
          "name": "amt",
          "type": "uint256"
        }
      ],
      "name": "DonationMade",
      "type": "event"
    },
    {
      "anonymous": false,
      "inputs": [
        {
          "indexed": true,
          "name": "id",
          "type": "uint256"
        }
      ],
      "name": "DonationWithdrawn",
      "type": "event"
    },
    {
      "anonymous": false,
      "inputs": [
        {
          "indexed": false,
          "name": "volunteer",
          "type": "address"
        },
        {
          "indexed": false,
          "name": "sender",
          "type": "address"
        },
        {
          "indexed": false,
          "name": "amt",
          "type": "uint256"
        }
      ],
      "name": "VolunteerTipped",
      "type": "event"
    },
    {
      "constant": false,
      "inputs": [
        {
          "name": "_req",
          "type": "uint256"
        }
      ],
      "name": "createCause",
      "outputs": [
        {
          "name": "",
          "type": "uint256"
        }
      ],
      "payable": false,
      "stateMutability": "nonpayable",
      "type": "function"
    },
    {
      "constant": false,
      "inputs": [
        {
          "name": "_id",
          "type": "uint256"
        }
      ],
      "name": "donate",
      "outputs": [],
      "payable": true,
      "stateMutability": "payable",
      "type": "function"
    },
    {
      "constant": false,
      "inputs": [
        {
          "name": "_id",
          "type": "uint256"
        }
      ],
      "name": "withdraw",
      "outputs": [],
      "payable": false,
      "stateMutability": "nonpayable",
      "type": "function"
    },
    {
      "constant": false,
      "inputs": [
        {
          "name": "_receiver",
          "type": "address"
        }
      ],
      "name": "tip",
      "outputs": [],
      "payable": true,
      "stateMutability": "payable",
      "type": "function"
    },
    {
      "constant": true,
      "inputs": [
        {
          "name": "_id",
          "type": "uint256"
        }
      ],
      "name": "getCauseDetails",
      "outputs": [
        {
          "name": "",
          "type": "address"
        },
        {
          "name": "",
          "type": "uint256"
        },
        {
          "name": "",
          "type": "uint256"
        },
        {
          "name": "",
          "type": "uint256"
        },
        {
          "name": "",
          "type": "bool"
        }
      ],
      "payable": false,
      "stateMutability": "view",
      "type": "function"
    }
  ],
  "bytecode": "0x6080604052600060035534801561001557600080fd5b5033600460006101000a81548173ffffffffffffffffffffffffffffffffffffffff021916908373ffffffffffffffffffffffffffffffffffffffff160217905550610c3d806100666000396000f3fe6080604052600436106100555760003560e01c80632e1a7d4d1461005a5780638da5cb5b14610095578063a2a0137a146100ec578063ab10d4b31461013b578063ac733ef7146101d6578063f14faf6f1461021a575b600080fd5b34801561006657600080fd5b506100936004803603602081101561007d57600080fd5b8101908080359060200190929190505050610248565b005b3480156100a157600080fd5b506100aa610524565b604051808273ffffffffffffffffffffffffffffffffffffffff1673ffffffffffffffffffffffffffffffffffffffff16815260200191505060405180910390f35b3480156100f857600080fd5b506101256004803603602081101561010f57600080fd5b810190808035906020019092919050505061054a565b6040518082815260200191505060405180910390f35b34801561014757600080fd5b506101746004803603602081101561015e57600080fd5b81019080803590602001909291905050506106a4565b604051808673ffffffffffffffffffffffffffffffffffffffff1673ffffffffffffffffffffffffffffffffffffffff168152602001858152602001848152602001838152602001821515151581526020019550505050505060405180910390f35b610218600480360360208110156101ec57600080fd5b81019080803573ffffffffffffffffffffffffffffffffffffffff16906020019092919050505061082d565b005b6102466004803603602081101561023057600080fd5b810190808035906020019092919050505061098d565b005b60008082815260200190815260200160002060009054906101000a900460ff166102bd576040517f08c379a0000000000000000000000000000000000000000000000000000000008152600401808060200182810382526021815260200180610bf16021913960400191505060405180910390fd5b6001600082815260200190815260200160002060009054906101000a900460ff1615610334576040517f08c379a000000000000000000000000000000000000000000000000000000000815260040180806020018281038252602d815260200180610ba2602d913960400191505060405180910390fd5b6002600082815260200190815260200160002060010160009054906101000a900473ffffffffffffffffffffffffffffffffffffffff1673ffffffffffffffffffffffffffffffffffffffff163373ffffffffffffffffffffffffffffffffffffffff16146103ee576040517f08c379a0000000000000000000000000000000000000000000000000000000008152600401808060200182810382526022815260200180610bcf6022913960400191505060405180910390fd5b3373ffffffffffffffffffffffffffffffffffffffff166108fc60026000848152602001908152602001600020600401546002600085815260200190815260200160002060030154039081150290604051600060405180830381858888f19350505050158015610462573d6000803e3d6000fd5b50600260008281526020019081526020016000206003015460026000838152602001908152602001600020600401819055506002600082815260200190815260200160002060020154600260008381526020019081526020016000206003015414156104f457600180600083815260200190815260200160002060006101000a81548160ff0219169083151502179055505b807fadad3dc8cf690add201160c828a7a70d8f7134ec9ec064830bf965e8bd5cfeb960405160405180910390a250565b600460009054906101000a900473ffffffffffffffffffffffffffffffffffffffff1681565b60006003600081548092919060010191905055506001600080600354815260200190815260200160002060006101000a81548160ff0219169083151502179055506040518060a0016040528060035481526020013373ffffffffffffffffffffffffffffffffffffffff1681526020018381526020016000815260200160008152506002600060035481526020019081526020016000206000820151816000015560208201518160010160006101000a81548173ffffffffffffffffffffffffffffffffffffffff021916908373ffffffffffffffffffffffffffffffffffffffff160217905550604082015181600201556060820151816003015560808201518160040155905050813373ffffffffffffffffffffffffffffffffffffffff166003547fb7b3ec57ec6e818e20a9c9365a1d26439efb369e1d86e11bfe37aac47012c9ef60405160405180910390a46003549050919050565b600080600080600080600087815260200190815260200160002060009054906101000a900460ff1661073e576040517f08c379a00000000000000000000000000000000000000000000000000000000081526004018080602001828103825260148152602001807f436175736520646f6573206e6f7420657869737400000000000000000000000081525060200191505060405180910390fd5b610746610b5c565b600260008881526020019081526020016000206040518060a0016040529081600082015481526020016001820160009054906101000a900473ffffffffffffffffffffffffffffffffffffffff1673ffffffffffffffffffffffffffffffffffffffff1673ffffffffffffffffffffffffffffffffffffffff168152602001600282015481526020016003820154815260200160048201548152505090508060200151816040015182606001518360800151600160008c815260200190815260200160002060009054906101000a900460ff16955095509550955095505091939590929450565b60003414156108a4576040517f08c379a000000000000000000000000000000000000000000000000000000000815260040180806020018281038252600f8152602001807f43616e277420746970203020455448000000000000000000000000000000000081525060200191505060405180910390fd5b8073ffffffffffffffffffffffffffffffffffffffff166108fc349081150290604051600060405180830381858888f193505050501580156108ea573d6000803e3d6000fd5b507fc7b02e141378fa1c151da4ba1e933d623b8292f7a4f3be3dabc1339b7e969e73813334604051808473ffffffffffffffffffffffffffffffffffffffff1673ffffffffffffffffffffffffffffffffffffffff1681526020018373ffffffffffffffffffffffffffffffffffffffff1673ffffffffffffffffffffffffffffffffffffffff168152602001828152602001935050505060405180910390a150565b6000341415610a04576040517f08c379a00000000000000000000000000000000000000000000000000000000081526004018080602001828103825260128152602001807f43616e277420646f6e617465203020455448000000000000000000000000000081525060200191505060405180910390fd5b60008082815260200190815260200160002060009054906101000a900460ff16610a79576040517f08c379a0000000000000000000000000000000000000000000000000000000008152600401808060200182810382526021815260200180610bf16021913960400191505060405180910390fd5b6001600082815260200190815260200160002060009054906101000a900460ff1615610af0576040517f08c379a000000000000000000000000000000000000000000000000000000000815260040180806020018281038252602d815260200180610ba2602d913960400191505060405180910390fd5b346002600083815260200190815260200160002060030160008282540192505081905550343373ffffffffffffffffffffffffffffffffffffffff16827fe555da28bdb778f65d22794d88927ebaeca03f7de9d1b7d39245bc8fb5ca078a60405160405180910390a450565b6040518060a0016040528060008152602001600073ffffffffffffffffffffffffffffffffffffffff168152602001600081526020016000815260200160008152509056fe436175736520666f7220646f6e6174696f6e2068617320616c7265616479206265656e2066756c66696c6c65644f6e6c792063726561746f72206f662063617573652063616e207769746864726177436175736520666f7220646f6e6174696f6e20646f6573206e6f74206578697374a165627a7a72305820594191cbd92825ee06e1294662979438a0d746aa8a49357d0a62f1197859cfcf0029",
  "source": "pragma solidity >=0.5.0 <0.7.0;\n\ncontract HumanChain{\n    \n    struct Cause{\n        uint256 id;\n        address creator;\n        uint256 requirement;\n        uint256 donated;\n        uint256 withdrawn;\n    }\n    \n    mapping(uint256 => bool) cause_exists;\n    mapping(uint256 => bool) cause_fulfilled;\n    mapping(uint256 => Cause) causes;\n    \n    uint256 counter = 0;\n    address public owner;\n    \n    event NewCause(uint256 indexed id, address indexed creator, uint256 indexed req);\n    event DonationMade(uint256 indexed id, address indexed donor, uint256 indexed amt);\n    event DonationWithdrawn(uint256 indexed id);\n    event VolunteerTipped(address volunteer, address sender, uint256 amt);\n    \n    \n    constructor() public {\n        owner = msg.sender;\n    }\n\n    function createCause(uint256 _req) public returns (uint256){\n        counter++;\n        cause_exists[counter] = true;\n        causes[counter] = Cause({id: counter, creator: msg.sender, requirement: _req, donated: 0, withdrawn: 0});\n        \n        emit NewCause(counter, msg.sender, _req);\n        return counter;\n    }\n    \n    function donate(uint256 _id) public payable{\n        require(msg.value != 0, \"Can't donate 0 ETH\");\n        require(cause_exists[_id], \"Cause for donation does not exist\");\n        require(!cause_fulfilled[_id], \"Cause for donation has already been fulfilled\");\n        \n        causes[_id].donated += msg.value;\n        \n        emit DonationMade(_id, msg.sender, msg.value);\n    }\n    \n    function withdraw(uint256 _id) public {\n        require(cause_exists[_id], \"Cause for donation does not exist\");\n        require(!cause_fulfilled[_id], \"Cause for donation has already been fulfilled\");\n        require(msg.sender == causes[_id].creator, \"Only creator of cause can withdraw\");\n        \n\n        msg.sender.transfer(causes[_id].donated - causes[_id].withdrawn);\n        causes[_id].withdrawn = causes[_id].donated;\n        \n        if(causes[_id].donated == causes[_id].requirement){\n            cause_fulfilled[_id] = true;\n        }\n        \n        emit DonationWithdrawn(_id);\n    }\n    \n    function tip(address payable _receiver) public payable{\n        require(msg.value != 0, \"Can't tip 0 ETH\");\n        _receiver.transfer(msg.value);\n        \n        emit VolunteerTipped(_receiver, msg.sender, msg.value);\n    }\n\n    function getCauseDetails(uint256 _id) public view returns(address, uint256, uint256, uint256, bool){\n        require(cause_exists[_id], \"Cause does not exist\");\n        Cause memory c = causes[_id];\n        return (c.creator, c.requirement, c.donated, c.withdrawn, cause_fulfilled[_id]);\n    }\n}",
  "sourcePath": "/home/tezansahu/Tezan/Github Repos/Devpost_28_03_2020/blockchain/contracts/HumanChain.sol",
  "compiler": {
    "name": "solc",
    "version": "0.5.8+commit.23d335f2.Emscripten.clang"
  },
  "schemaVersion": "3.0.11",
  "updatedAt": "2020-03-29T16:16:08.005Z",
  "devdoc": {
    "methods": {}
  },
  "userdoc": {
    "methods": {}
  }
}